:100000000C945D000C9485000C9485000C94850084
:100010000C9485000C9485000C9485000C9485004C
:100020000C9485000C9485000C9485000C9485003C
:100030000C9485000C9485000C9485000C9485002C
:100040000C94DC020C9485000C94AA020C9484029B
:100050000C9485000C9485000C9485000C9485000C
:100060000C9485000C9485000000000024002700FB
:100070002A0000000000250028002B0004040404CE
:100080000404040402020202020203030303030342
:10009000010204081020408001020408102001021F
:1000A00004081020000000080002010000030407FB
:1000B0000000000000000000550411241FBECFEF17
:1000C000D8E0DEBFCDBF11E0A0E0B1E0E2E6F9E0AC
:1000D00002C005900D92A232B107D9F721E0A2E249
:1000E000B1E001C01D92A83CB207E1F710E0CDE5F8
:1000F000D0E004C02197FE010E94A404CC35D107B2
:10010000C9F70E9426030C94AF040C940000CF9210
:10011000DF92EF92FF920F931F93CF93DF936C01C7
:100120007A018B01C0E0D0E0CE15DF0589F0D8015F
:100130006D918D01D601ED91FC910190F081E02D42
:10014000C6010995892B11F47E0102C02196ECCFDE
:10015000C701DF91CF911F910F91FF90EF90DF903A
:10016000CF900895089580E090E00895FC01538DAC
:10017000448D252F30E0842F90E0821B930B541781
:1001800010F0CF96089501970895FC01918D828D0E
:10019000981761F0828DDF01A80FB11D5D968C91DB
:1001A000928D9F5F9F73928F90E008958FEF9FEFE6
:1001B0000895FC01918D828D981731F0828DE80FA2
:1001C000F11D858D90E008958FEF9FEF0895FC015C
:1001D000918D228D892F90E0805C9F4F821B910929
:1001E0008F73992708958BE291E00E94E70021E048
:1001F000892B09F420E0822F0895FC01848DDF0112
:10020000A80FB11DA35ABF4F2C91848D90E0019689
:100210008F739927848FA689B7892C93A089B18978
:100220008C9180648C93938D848D981306C0028882
:10023000F389E02D80818F7D80830895EF92FF9276
:100240000F931F93CF93DF93EC0181E0888F9B8DF9
:100250008C8D981305C0E889F989808185FD24C0BB
:10026000F62E0B8D10E00F5F1F4F0F731127E02E3E
:100270008C8DE8120CC00FB607FCFACFE889F9891B
:10028000808185FFF5CFCE010E94FD00F1CF8B8DDF
:10029000FE01E80FF11DE35AFF4FF0820B8FEA8950
:1002A000FB898081806207C0EE89FF896083E889CD
:1002B000F98980818064808381E090E0DF91CF9133
:1002C0001F910F91FF90EF900895CF93DF93EC0172
:1002D000888D8823C9F0EA89FB89808185FD05C066
:1002E000A889B9898C9186FD0FC00FB607FCF5CFA0
:1002F000808185FFF2CFA889B9898C9185FFEDCFE8
:10030000CE010E94FD00E7CFDF91CF91089580E0FC
:1003100090E0892B29F00E94F30081110C940000D9
:10032000089590E0FC01EC55FF4F3491FC01E0573B
:10033000FF4F2491FC01E458FF4FE491EE2309F4B0
:100340003BC0332339F1333091F038F43130A9F028
:10035000323001F584B58F7D12C0373091F03830DE
:10036000A1F03430B9F4809180008F7D03C080917A
:1003700080008F77809380000DC084B58F7784BD17
:1003800009C08091B0008F7703C08091B0008F7D4D
:100390008093B000F0E0EE0FFF1FEE58FF4FA591E5
:1003A000B4918FB7F894EC91611103C020952E237E
:1003B00001C02E2B2C938FBF0895482F50E0FA01D7
:1003C000E057FF4F9491FA01E458FF4F2491222304
:1003D00099F030E0220F331FF901E859FF4FA59142
:1003E000B491F901EE58FF4F259134912FB7F8944D
:1003F000EC91E92BEC932FBF6115710511F460E0CE
:1004000004C06F3F710519F461E00C949101FA0189
:10041000EC55FF4FE491E330F9F048F4E130B9F0E6
:10042000E230A1F584B5806284BD68BD0895E730EF
:10043000E9F0E83019F1E43049F5809180008062FC
:100440008093800070938B0060938A00089584B538
:10045000806884BD67BD0895809180008068809326
:100460008000709389006093880008958091B000A7
:1004700080688093B0006093B30008958091B000CD
:1004800080628093B0006093B40008956038710575
:100490000CF0BACFB4CF3FB7F89480912701909178
:1004A0002801A0912901B0912A0126B5A89B05C079
:1004B0002F3F19F00196A11DB11D3FBFBA2FA92FE3
:1004C000982F8827820F911DA11DB11DBC01CD0160
:1004D00042E0660F771F881F991F4A95D1F708954C
:1004E000009769F0FC0101900020E9F73197AF0116
:1004F000481B590BBC018BE291E00C94870080E013
:1005000090E008950E94AA041F920F920FB60F92D6
:1005100011242F933F934F935F936F937F938F9308
:100520009F93AF93BF93EF93FF938BE291E00E9471
:10053000FD00FF91EF91BF91AF919F918F917F91BE
:100540006F915F914F913F912F910F900FBE0F9040
:100550001F9018951F920F920FB60F9211242F9390
:100560008F939F93EF93FF93E0913B01F0913C01B8
:100570008081E0914101F091420182FD12C09081A1
:10058000809144018F5F8F7320914501821751F054
:10059000E0914401F0E0E55DFE4F958F80934401CA
:1005A00001C08081FF91EF919F918F912F910F90CA
:1005B0000FBE0F901F9018951F920F920FB60F92BB
:1005C00011242F933F938F939F93AF93BF93809169
:1005D000230190912401A0912501B0912601309131
:1005E000220123E0230F2D3720F40196A11DB11D18
:1005F00005C026E8230F0296A11DB11D20932201FC
:100600008093230190932401A0932501B0932601A8
:100610008091270190912801A0912901B0912A0190
:100620000196A11DB11D8093270190932801A093ED
:100630002901B0932A01BF91AF919F918F913F9172
:100640002F910F900FBE0F901F901895CF93DF93AF
:10065000CDB7DEB7A1970FB6F894DEBF0FBECDBF02
:10066000789484B5826084BD84B5816084BD85B58D
:10067000826085BD85B5816085BD80916E00816099
:1006800080936E001092810080918100826080933F
:100690008100809181008160809381008091800041
:1006A0008160809380008091B10084608093B1006C
:1006B0008091B00081608093B00080917A00846066
:1006C00080937A0080917A00826080937A00809192
:1006D0007A00816080937A0080917A0080688093AC
:1006E0007A001092C100E0913B01F0913C0182E060
:1006F0008083E0913701F09138011082E091390157
:10070000F0913A018FEC808310924301E0913F0118
:10071000F091400186E08083E0913D01F0913E013F
:10072000808180618083E0913D01F0913E01808174
:1007300088608083E0913D01F0913E018081806876
:100740008083E0913D01F0913E0180818F7D808327
:1007500082E191E00E9470028EE191E00E947002BD
:1007600090E4392E2AE0822E912CA12CB12C3092CB
:100770007C0080917A00806480937A0080917A0076
:1007800086FDFCCF009178008091790010E0182B55
:1007900017FF02C00D5F1F4F15950795159507951B
:1007A0006801012E000CEE08FF0817FF26C0E0913B
:1007B0002B01F0912C010190F081E02D6DE28BE294
:1007C00091E0099522273327A9012C193D094E09EB
:1007D0005F0919A2CE0181967C01CA01B901A50168
:1007E00094010E948204605DF70162937F012115EC
:1007F00031054105510589F715C0A701960119A2D8
:10080000CE0181967C01CA01B901A50194010E9423
:100810008204605DF70162937F0121153105410576
:10082000510589F7C7010E9470028EE191E00E9494
:100830007002B80185E00E94DD016FEF70E0601B7F
:10084000710B86E00E94DD010E944B026B017C016E
:100850008AEF90E0A0E0B0E02C013D010E944B0245
:10086000DC01CB018C199D09AE09BF09883E93407C
:10087000A105B10588F0F1E04F1A5108610871082F
:1008800028EEC20E23E0D21EE11CF11C41145104DB
:100890006104710419F706C0D301C2014528462836
:1008A0004728D1F60E94870162CFEBE2F1E0138284
:1008B000128288EE93E0A0E0B0E084839583A68363
:1008C000B78384E091E09183808385EC90E0958705
:1008D000848784EC90E09787868780EC90E0918B0A
:1008E000808B81EC90E0938B828B82EC90E0958BF7
:1008F000848B86EC90E0978B868B118E128E138EF4
:10090000148E0895A1E21A2EAA1BBB1BFD010DC077
:10091000AA1FBB1FEE1FFF1FA217B307E407F507AF
:1009200020F0A21BB30BE40BF50B661F771F881F8B
:10093000991F1A9469F760957095809590959B0121
:10094000AC01BD01CF010895EE0FFF1F0590F4919A
:10095000E02D099481E090E0F8940C94AF04F894B1
:02096000FFCFC7
:10096200000000001E018700B6006501E700C50017
:10097200D9004865726520776520676F21000D0AEE
:02098200000073
:00000001FF
